{
  "contractName": "PraticaAssicurativa",
  "abi": [
    {
      "inputs": [],
      "payable": false,
      "stateMutability": "nonpayable",
      "type": "constructor"
    },
    {
      "anonymous": false,
      "inputs": [
        {
          "indexed": false,
          "internalType": "uint256",
          "name": "ID",
          "type": "uint256"
        },
        {
          "indexed": false,
          "internalType": "string",
          "name": "nomeIncidente",
          "type": "string"
        },
        {
          "indexed": false,
          "internalType": "string",
          "name": "data",
          "type": "string"
        },
        {
          "indexed": false,
          "internalType": "string",
          "name": "comandoPoliziaMunicipale",
          "type": "string"
        },
        {
          "indexed": false,
          "internalType": "uint256",
          "name": "costo",
          "type": "uint256"
        }
      ],
      "name": "creazionePratica",
      "type": "event"
    },
    {
      "anonymous": false,
      "inputs": [
        {
          "indexed": false,
          "internalType": "uint256",
          "name": "ID",
          "type": "uint256"
        },
        {
          "indexed": false,
          "internalType": "string",
          "name": "nomeIncidente",
          "type": "string"
        },
        {
          "indexed": false,
          "internalType": "string",
          "name": "data",
          "type": "string"
        },
        {
          "indexed": false,
          "internalType": "string",
          "name": "comandoPoliziaMunicipale",
          "type": "string"
        },
        {
          "indexed": false,
          "internalType": "uint256",
          "name": "costo",
          "type": "uint256"
        }
      ],
      "name": "praticaFirmata",
      "type": "event"
    },
    {
      "constant": true,
      "inputs": [
        {
          "internalType": "uint256",
          "name": "",
          "type": "uint256"
        }
      ],
      "name": "_pratiche",
      "outputs": [
        {
          "internalType": "uint256",
          "name": "ID",
          "type": "uint256"
        },
        {
          "internalType": "uint256",
          "name": "costo",
          "type": "uint256"
        },
        {
          "internalType": "uint256",
          "name": "firmaCount",
          "type": "uint256"
        },
        {
          "internalType": "string",
          "name": "nomeIncidente",
          "type": "string"
        },
        {
          "internalType": "string",
          "name": "data",
          "type": "string"
        },
        {
          "internalType": "string",
          "name": "comandoPoliziaMunicipale",
          "type": "string"
        },
        {
          "internalType": "address",
          "name": "indirizzoCliente",
          "type": "address"
        }
      ],
      "payable": false,
      "stateMutability": "view",
      "type": "function"
    },
    {
      "constant": true,
      "inputs": [
        {
          "internalType": "uint256",
          "name": "",
          "type": "uint256"
        }
      ],
      "name": "praticheArray",
      "outputs": [
        {
          "internalType": "uint256",
          "name": "",
          "type": "uint256"
        }
      ],
      "payable": false,
      "stateMutability": "view",
      "type": "function"
    },
    {
      "constant": false,
      "inputs": [
        {
          "internalType": "uint256",
          "name": "_ID",
          "type": "uint256"
        },
        {
          "internalType": "string",
          "name": "_nomeIncidente",
          "type": "string"
        },
        {
          "internalType": "string",
          "name": "_data",
          "type": "string"
        },
        {
          "internalType": "string",
          "name": "_comandoPoliziaMunicipale",
          "type": "string"
        },
        {
          "internalType": "uint256",
          "name": "_costo",
          "type": "uint256"
        }
      ],
      "name": "newPratica",
      "outputs": [],
      "payable": false,
      "stateMutability": "nonpayable",
      "type": "function"
    },
    {
      "constant": false,
      "inputs": [
        {
          "internalType": "uint256",
          "name": "_ID",
          "type": "uint256"
        }
      ],
      "name": "firmaPratica",
      "outputs": [],
      "payable": false,
      "stateMutability": "nonpayable",
      "type": "function"
    }
  ],
  "bytecode": "0x608060405234801561001057600080fd5b50336000806101000a81548173ffffffffffffffffffffffffffffffffffffffff021916908373ffffffffffffffffffffffffffffffffffffffff1602179055507362d6f59fef467154f6ebc924f8ec74400076a106600160006101000a81548173ffffffffffffffffffffffffffffffffffffffff021916908373ffffffffffffffffffffffffffffffffffffffff160217905550610e56806100b56000396000f3fe608060405234801561001057600080fd5b506004361061004c5760003560e01c806319b1d602146100515780633ec90ef21461021857806389bc05ba1461025a5780639195f0df14610457575b600080fd5b61007d6004803603602081101561006757600080fd5b8101908080359060200190929190505050610485565b604051808881526020018781526020018681526020018060200180602001806020018573ffffffffffffffffffffffffffffffffffffffff1673ffffffffffffffffffffffffffffffffffffffff168152602001848103845288818151815260200191508051906020019080838360005b838110156101095780820151818401526020810190506100ee565b50505050905090810190601f1680156101365780820380516001836020036101000a031916815260200191505b50848103835287818151815260200191508051906020019080838360005b8381101561016f578082015181840152602081019050610154565b50505050905090810190601f16801561019c5780820380516001836020036101000a031916815260200191505b50848103825286818151815260200191508051906020019080838360005b838110156101d55780820151818401526020810190506101ba565b50505050905090810190601f1680156102025780820380516001836020036101000a031916815260200191505b509a505050505050505050505060405180910390f35b6102446004803603602081101561022e57600080fd5b81019080803590602001909291905050506106af565b6040518082815260200191505060405180910390f35b610455600480360360a081101561027057600080fd5b81019080803590602001909291908035906020019064010000000081111561029757600080fd5b8201836020820111156102a957600080fd5b803590602001918460018302840111640100000000831117156102cb57600080fd5b91908080601f016020809104026020016040519081016040528093929190818152602001838380828437600081840152601f19601f8201169050808301925050505050505091929192908035906020019064010000000081111561032e57600080fd5b82018360208201111561034057600080fd5b8035906020019184600183028401116401000000008311171561036257600080fd5b91908080601f016020809104026020016040519081016040528093929190818152602001838380828437600081840152601f19601f820116905080830192505050505050509192919290803590602001906401000000008111156103c557600080fd5b8201836020820111156103d757600080fd5b803590602001918460018302840111640100000000831117156103f957600080fd5b91908080601f016020809104026020016040519081016040528093929190818152602001838380828437600081840152601f19601f820116905080830192505050505050509192919290803590602001909291905050506106d0565b005b6104836004803603602081101561046d57600080fd5b810190808035906020019092919050505061094f565b005b6002602052806000526040600020600091509050806000015490806001015490806002015490806003018054600181600116156101000203166002900480601f0160208091040260200160405190810160405280929190818152602001828054600181600116156101000203166002900480156105435780601f1061051857610100808354040283529160200191610543565b820191906000526020600020905b81548152906001019060200180831161052657829003601f168201915b505050505090806004018054600181600116156101000203166002900480601f0160208091040260200160405190810160405280929190818152602001828054600181600116156101000203166002900480156105e15780601f106105b6576101008083540402835291602001916105e1565b820191906000526020600020905b8154815290600101906020018083116105c457829003601f168201915b505050505090806005018054600181600116156101000203166002900480601f01602080910402602001604051908101604052809291908181526020018280546001816001161561010002031660029004801561067f5780601f106106545761010080835404028352916020019161067f565b820191906000526020600020905b81548152906001019060200180831161066257829003601f168201915b5050505050908060060160009054906101000a900473ffffffffffffffffffffffffffffffffffffffff16905087565b600381815481106106bc57fe5b906000526020600020016000915090505481565b6000600260008781526020019081526020016000209050338160060160006101000a81548173ffffffffffffffffffffffffffffffffffffffff021916908373ffffffffffffffffffffffffffffffffffffffff1602179055508581600001819055508481600301908051906020019061074b929190610d7c565b5083816004019080519060200190610764929190610d7c565b508281600501908051906020019061077d929190610d7c565b508181600101819055506000816002018190555060038690806001815401808255809150509060018203906000526020600020016000909192909190915055507fa5bfcca3c7e745d8fe5b31853746eb10c45dbc04eca8a3295bcf295e0835321581600001548686868660405180868152602001806020018060200180602001858152602001848103845288818151815260200191508051906020019080838360005b8381101561083b578082015181840152602081019050610820565b50505050905090810190601f1680156108685780820380516001836020036101000a031916815260200191505b50848103835287818151815260200191508051906020019080838360005b838110156108a1578082015181840152602081019050610886565b50505050905090810190601f1680156108ce5780820380516001836020036101000a031916815260200191505b50848103825286818151815260200191508051906020019080838360005b838110156109075780820151818401526020810190506108ec565b50505050905090810190601f1680156109345780820380516001836020036101000a031916815260200191505b509850505050505050505060405180910390a1505050505050565b6000809054906101000a900473ffffffffffffffffffffffffffffffffffffffff1673ffffffffffffffffffffffffffffffffffffffff163373ffffffffffffffffffffffffffffffffffffffff1614806109f75750600160009054906101000a900473ffffffffffffffffffffffffffffffffffffffff1673ffffffffffffffffffffffffffffffffffffffff163373ffffffffffffffffffffffffffffffffffffffff16145b610a0057600080fd5b60006002600083815260200190815260200160002090508060060160009054906101000a900473ffffffffffffffffffffffffffffffffffffffff1673ffffffffffffffffffffffffffffffffffffffff16600073ffffffffffffffffffffffffffffffffffffffff161415610a7557600080fd5b8060060160009054906101000a900473ffffffffffffffffffffffffffffffffffffffff1673ffffffffffffffffffffffffffffffffffffffff163373ffffffffffffffffffffffffffffffffffffffff161415610ad257600080fd5b60018160070160003373ffffffffffffffffffffffffffffffffffffffff1673ffffffffffffffffffffffffffffffffffffffff168152602001908152602001600020541415610b2157600080fd5b60018160070160003373ffffffffffffffffffffffffffffffffffffffff1673ffffffffffffffffffffffffffffffffffffffff168152602001908152602001600020819055508060020160008154809291906001019190505550600281600201541415610d78577f2de480b6fedc9ee68605c2dca6673831b84580acfcd67327d468b5c2968079178160000154826003018360040184600501856001015460405180868152602001806020018060200180602001858152602001848103845288818154600181600116156101000203166002900481526020019150805460018160011615610100020316600290048015610c5d5780601f10610c3257610100808354040283529160200191610c5d565b820191906000526020600020905b815481529060010190602001808311610c4057829003601f168201915b5050848103835287818154600181600116156101000203166002900481526020019150805460018160011615610100020316600290048015610ce05780601f10610cb557610100808354040283529160200191610ce0565b820191906000526020600020905b815481529060010190602001808311610cc357829003601f168201915b5050848103825286818154600181600116156101000203166002900481526020019150805460018160011615610100020316600290048015610d635780601f10610d3857610100808354040283529160200191610d63565b820191906000526020600020905b815481529060010190602001808311610d4657829003601f168201915b50509850505050505050505060405180910390a15b5050565b828054600181600116156101000203166002900490600052602060002090601f016020900481019282601f10610dbd57805160ff1916838001178555610deb565b82800160010185558215610deb579182015b82811115610dea578251825591602001919060010190610dcf565b5b509050610df89190610dfc565b5090565b610e1e91905b80821115610e1a576000816000905550600101610e02565b5090565b9056fea265627a7a72315820e4edba7b96f36b6c63b427358583e10a19d82b86271d914762cc3a657d00eb9564736f6c63430005100032",
  "source": "pragma solidity >=0.4.22 <0.9.0;\n\ncontract PraticaAssicurativa {\n\n    address private polizia;        //Indirizzo ganache polizia\n    address private perito;         //Indirizzo ganache perito\n\n    struct Pratica {\n        uint256 ID;             //ID Pratica\n        uint256 costo;          //Costo \n        uint256 firmaCount;     //Contatore numero firme sulla pratica\n        string nomeIncidente;   //Indentificativo incidente\n        string data;            //Data\n        string comandoPoliziaMunicipale;        //Nome del comando di polizia municipale che ha in gestione la pratica\n        address indirizzoCliente;                          //Indirizzo cliente che ha aperto la pratica\n        mapping (address => uint256) firme;            //Firme\n    }\n\n    //Questo metodo serve per fare un controllo di convalida per quanto riguarda gli indirizzi della polizia e del perito\n    modifier signOnly {                                                       \n        require (msg.sender == polizia|| msg.sender == perito );\n        _;\n    }\n\n    constructor() public {\n        polizia= msg.sender;\n        perito = 0x62D6f59fEf467154F6EbC924F8eC74400076a106;     //assegna un'indirizzo da ganache              \n    }\n    \n    \n    // Mapping utile per memorizzare le pratiche\n    mapping (uint256=> Pratica) public _pratiche;\n    uint256[] public praticheArray;\n\n    event creazionePratica(uint256 ID, string nomeIncidente, string data, string comandoPoliziaMunicipale, uint256 costo);\n    event praticaFirmata(uint256 ID, string nomeIncidente, string data, string comandoPoliziaMunicipale, uint256 costo);\n    \n    // Creazione nuova pratica\n    function newPratica(uint256 _ID, string memory _nomeIncidente, string memory _data, string memory _comandoPoliziaMunicipale, uint256 _costo) public{\n        Pratica storage _newpratica = _pratiche[_ID];\n\n        // inizializzazione nuova pratica da creare\n            _newpratica.indirizzoCliente = msg.sender;\n            _newpratica.ID = _ID;\n            _newpratica.nomeIncidente = _nomeIncidente;\n            _newpratica.data = _data;\n            _newpratica.comandoPoliziaMunicipale = _comandoPoliziaMunicipale;\n            _newpratica.costo = _costo;\n            _newpratica.firmaCount = 0;\n\n        praticheArray.push(_ID);\n        emit  creazionePratica(_newpratica.ID, _nomeIncidente, _data, _comandoPoliziaMunicipale, _costo);\n    }\n\n    // funzione per firmare la pratica\n    function firmaPratica(uint256 _ID) signOnly public {\n        Pratica storage pratica = _pratiche[_ID];\n        \n        // Controllo sull'autenticità delle firme\n        require(address(0) != pratica.indirizzoCliente);\n        require(msg.sender != pratica.indirizzoCliente);\n        \n        // Non è permesso che la stessa persona firmi più volte\n        require(pratica.firme[msg.sender] != 1);\n\n        pratica.firme[msg.sender] = 1;\n        pratica.firmaCount++;\n\n        // Controllo se la pratica è stata firmata corretamente da polziia e perito, cosi da procedere con il processo assicurativo\n        if(pratica.firmaCount == 2)\n            emit  praticaFirmata(pratica.ID, pratica.nomeIncidente, pratica.data, pratica.comandoPoliziaMunicipale, pratica.costo);\n\n    }\n}\n",
  "sourcePath": "/Users/salvatore/Desktop/DAPP-Civil_Insurance-/src/contracts/PraticaAssicurativa.sol",
  "compiler": {
    "name": "solc",
    "version": "0.5.16+commit.9c3226ce.Emscripten.clang"
  },
  "schemaVersion": "3.4.3",
  "updatedAt": "2021-12-15T19:20:09.300Z",
  "networkType": "ethereum",
  "devdoc": {
    "methods": {}
  },
  "userdoc": {
    "methods": {}
  }
}